:100000000C9481010C94C8010C94C8010C94DA0979
:100010000C94C8010C94C8010C94C8010C94C8013C
:100020000C94C8010C94C8010C94B11A0C94851B53
:100030000C94F6150C94C8010C94C8010C94C801DA
:100040000C94C8010C94C8010C94C8010C94C8010C
:100050000C94C8010C9441160C94C8010C94C8016E
:100060000C94C8010C94C8010C94C8010C94C801EC
:100070000C94C8010C94C8010C94C8010C94C801DC
:100080000C94C8010C94C8010C94C8010C94C801CC
:100090000C94C8010C94C8010C94C8010C94C801BC
:1000A0000C94C8010C94C8010C94C80129003000BC
:1000B0001E001F002000210022004C0035003200ED
:1000C00014001A000800150017002B000000E200C1
:1000D00004001600070009000A0000000000E0000C
:1000E0001D001B0006001900050000004A004E001C
:1000F0004B004D002C00E100015139004900230064
:1001000024002500260027002D00890028001C005F
:1001100018000C00120013002F002E0000000B002E
:100120000D000E000F00330034000000000011002D
:100130001000360037003800870000008800E30018
:10014000E5002A005000520051004F00010001005C
:100150003A003B003C003D003E0001000100010070
:100160000100010001000100010001000000010088
:100170000100010001000100010000000000010079
:100180000100010001000100010000000100010068
:1001900001000100010001000100010001003F0019
:1001A0004000410042004300010001000100010045
:1001B0000100010001000100010001000000010038
:1001C0000100010001000100010000000000010029
:1001D0000100010001000100010000000100010018
:1001E0000100010001000100010001003E03450083
:1001F0004300200054004C002000530070006C00AD
:100200006900740020004B006500790062006F00F7
:100210006100720064002000310038006D006D0044
:1002200020005200650076003000000010037300CB
:100230006100740072006F006D006900000004032B
:10024000090409023B00020100A0FA0904000001B0
:10025000030101000921110100012240000705816D
:100260000308000A0904010001030000000921112C
:100270000100012232000705820320000A1201104A
:100280000100000008EDFEEC700100010200010514
:10029000010980A101850319012AB700150126B7BC
:1002A00000950175108100C0050C0901A1018504AC
:1002B00019012AA002150126A002950175108100DE
:1002C000C005010906A101050719E029E715002568
:1002D00001950875018102950175088101050719CD
:1002E0000029FF150026FF00950675088100050806
:1002F0001901290595057501910295017503910173
:10030000C00011241FBECFEFDAE0DEBFCDBF04B6C0
:1003100003FE27C080916B0290916C02A0916D0248
:10032000B0916E028730904BA740B04BD1F4109241
:100330006B0210926C0210926D0210926E0214BE4B
:1003400084B7877F84BF0FB6F894A895809160002A
:10035000886180936000109260000FBEE0E0F8E3D7
:10036000099511E0A0E0B1E0EAE4FBE302C00590EA
:100370000D92AE38B107D9F722E0AEE8B1E001C086
:100380001D92AB36B207E1F70E94F3170C947F1D64
:100390000C940000807C809300010895873901F15E
:1003A00078F48633F9F030F48433F1F08533F1F0EA
:1003B0008FE108958439E1F08639D1F781E208951B
:1003C000843FC1F030F4803FB9F0813F89F781E08C
:1003D0000895863F99F0A0F0873F51F787E0089590
:1003E00082E2089585E2089583E2089584E2089503
:1003F00080E2089584E0089580E0089586E00895FD
:1004000085E0089596E890937A00982F907290680E
:1004100090937B008F7190910001892B80937C00D9
:1004200080917A00806480937A0080917A0086FDC2
:10043000FCCF809178002091790090917A009F778D
:1004400090937A00922F08950E94CE010C9402029C
:10045000CF93DF93EC0188819981AA81BB8180933E
:100460008E0190938F01A0939001B09391012A98EF
:10047000229A80E40E94CA01A6E2B1E04BE251E078
:1004800061E070E08D91E82FE295EF70F0E021A13E
:100490008F70EB0102C0CC0FDD1F8A95E2F7CE0111
:1004A000922F982B91A392A18095892382A34A171A
:1004B0005B0741F7ABE1B1E02EE131E061E070E0D4
:1004C0008D91E82FE295EF70F0E091A18F70AB0174
:1004D00001C0440F8A95EAF7892F842B81A32A173C
:1004E0003B0771F722982A9890E080E0DF91CF9146
:1004F0000895CF93229AE62FF0E0E25EFE4F9081BE
:1005000090FF39C08C9A91FF38C08D9A92FF37C006
:100510008E9AA6E2B1E06BE271E041E050E09D917D
:10052000E92FE295EF70F0E0C2A19F709A0101C03F
:10053000220F9A95EAF720952C2322A36A177B07AE
:1005400071F7F89422982A98E82FF0E0EA5DFE4FC0
:100550008081E82FE295EF70F0E092A18F7001C0EA
:10056000440F8A95EAF7492B42A386E30E942402AE
:100570007894CF9108958C98C6CF8D98C7CF8E98D8
:10058000C8CFFC019081292F30E0062E02C035959E
:1005900027950A94E2F720FF12C020918E01309136
:1005A0008F0142175307D0F421E030E001C0220F41
:1005B0006A95EAF720952923208381E00895209108
:1005C0009001309191012417350740F421E030E08B
:1005D00001C0220F6A95EAF7292BEECF80E008953B
:1005E000CF92DF92FF920F931F93CF93DF936C0113
:1005F00010E000E0D0E0C0E0F12CC530D10571F48E
:100600000F5F1F4F08301105B9F48F2DDF91CF9187
:100610001F910F91FF90DF90CF900895602F8C2F46
:100620000E947902AC01602FC6018C0F9D1F0E94B1
:10063000C102F82A2196E1CFD0E0C0E0DECF0895D4
:100640000895CF93DF9300D000D0CDB7DEB70E94DE
:10065000BB068091170190911801A0911901B091EA
:100660001A0189839A83AB83BC83CE0101960E94D1
:1006700028028091010195E0811190E0909343025E
:1006800085E0891B809342020E94C5060F900F905F
:100690000F900F90DF91CF910895CF930E94F002B9
:1006A000C82F80919301909194019C012F5F3F4F3F
:1006B0008C32914039F030939401209393018C2F28
:1006C000CF91089510929401109293010E941F03FC
:1006D000F6CF0E949D068823F9F08091420290E0B7
:1006E000825B9D4F0E94D806811113C080919201B8
:1006F0008F5F80939201853150F0E0914202F0E0EB
:10070000E25BFD4F108211821282138214820C94DC
:10071000100410929201FBCF8091430290E0825B23
:100720009D4F0E94F1060C942003CF9384E492E045
:100730000E944D03C82F6091430270E0625B7D4FC1
:10074000282F45E084E492E00E9467060E94690336
:100750008C2FCF910895509A589A08950E94AB0318
:100760000C94CA0A879A8F9A0C94C80A81E008955B
:1007700081E008950C94B80308950C94BC031F9372
:10078000CF93DF9300D000D00F92CDB7DEB749836F
:100790005A836B833091B60189819A8131111DC0D2
:1007A0006623B9F02223A9F00E946713182F682F3F
:1007B00089819A810E94121369817A81812F0F9019
:1007C0000F900F900F900F90DF91CF911F910C948D
:1007D0006D040E943F13182FEFCF0E9467136981A9
:1007E0007A81EDCFFC01262F408151816281738196
:1007F00084810C94BF03CF93DF93EC0160E00E94EF
:10080000F203BE01DF91CF910C94BD030E947816D4
:100810000E94A414811102C00E9448150C9449063C
:100820000C944C0608950E94F10E0E9412042FEFC2
:1008300084E39CE0215080409040E1F700C000003C
:100840000C9465160F931F93CF93DF93EC0161E037
:100850000E94F2038C01BE010E94BA03882329F191
:10086000BE01C8010E948B078823F9F0BE01C801B0
:100870000E94DD078823C9F0BE01C8010E9400095B
:10088000882399F08A81882339F001158CE51807AF
:1008900051F00F3D1C4579F0CE01DF91CF911F91B2
:1008A0000F910C94B6030E94130480E0DF91CF9166
:1008B0001F910F9108950E944815F7CF08950C9449
:1008C0005E0481E008950C946104CF93C82F0E94C8
:1008D0005F048C2FCF910C946304E72FF0E09AE033
:1008E000899FE00DF11D112483E0EE0FFF1F8A9513
:1008F000E1F7E60FF11DEE0FFF1FE455FF4F859165
:1009000094910895CF93DF930E946D040E946E0529
:10091000EC01811522E59207E8F5811531E5930791
:1009200008F0ACC0883E910510F5803E910570F549
:10093000883A910570F4853A910508F078C08130C5
:10094000910521F1009711F1049700F5D0E0C0E086
:100950001DC08F3B9105D0F7C85AD0E0CC0FDD1FEA
:10096000C55DDE4F0990D881C02DD4640FC08115BC
:1009700040E5940708F066C0C11580E4D80708F088
:100980005EC0CE019A9581159F4100F7CE01DF919F
:10099000CF910895811536E5930718F5811545E542
:1009A000940708F083C0C11584E5D80708F079C022
:1009B0009C2F969596959E0123703327C115D3459C
:1009C00008F461C0C1E0D0E002C0CC0FDD1F2A9561
:1009D000E2F730E2939FC0011124C82BD92BDA68CB
:1009E000D5CFC1158AE5D80778F4C11599E5D9079F
:1009F00008F066C0C11528E5D20708F4A7CFDC2FA0
:100A0000CC27C06FD06AC2CFCE01905681159042DC
:100A100008F09CCF8D2F8F710E94050690E0982FD3
:100A2000882788279F719C012C2BE90147C0C55A54
:100A3000D0E0C75ADE4FC881D0E0D064A7CFDF70C6
:100A4000D06AA4CFE4E096958795EA95E1F78370A4
:100A50002C2F26952695237040E2249F9001112487
:100A6000382B8C2F8370C1E0D0E002C0CC0FDD1F8B
:100A70008A95E2F7C22BD32BDC6888CFD82FCC27FE
:100A8000C16FD06A83CFC1E0D0E002C0CC0FDD1FC0
:100A90002A95E2F720E2929FC0011124C82BD92B9E
:100AA000EBCFDC2FCC27C46FD06A70CF0E94050635
:100AB000C82FD0E0DC2FCC27CC27DF71D06266CFE7
:100AC0008C2F8F700E94050634E0D695C7953A9515
:100AD000E1F7CF709C2FEC01D06958CF8238910597
:100AE000B1F1B0F48133910509F475C048F489324D
:100AF000910509F469C08A32910509F473C008951B
:100B00008533910509F459C08933910501F10895A0
:100B1000833E9105A9F138F4803E9105F9F0823EBB
:100B2000910549F10895863E9105A9F1873E910509
:100B3000C9F1843E910519F520915D0221FF1FC086
:100B400080915C0284FD14C087EE90E008952091AE
:100B50005C022370A1F080EE90E0089520915C0289
:100B600020FD47C030915D0230FF09C024FF44C022
:100B700090E080E004C020915C0222FDF7CF089550
:100B800020915C0222FD3BC030915D0230FDE3CF3D
:100B900024FFF5CFEDCF20915C0223FFF0CF24FDA1
:100BA000E7CFD2CF20915C0223FD2CC030915D02B3
:100BB00031FFEECF84EE90E0089520915C0225FF96
:100BC000DECF89E290E0089520915C0225FFD7CF27
:100BD00085E390E0089520915C0226FFD0CF8AE261
:100BE00090E0089520915C0226FFC9CF81E390E058
:100BF000089589E390E0089583EE90E0089582EEF1
:100C000090E0089586EE90E0089590915C0292FF46
:100C100006C0282F28712830F9F4877F846093FF5D
:100C200006C0282F28712831F1F4877E8461209135
:100C30005D0220FF06C0382F38713830D9F4877F25
:100C4000816021FF06C0282F28712831D1F4877ECA
:100C5000816194FD877E0895282F24712430F9F650
:100C60008B7F8860DCCF282F2471243101F78B7EA5
:100C70008861DDCF382F3171313019F78E7F886070
:100C8000E0CF282F2171213121F78E7E8861E1CFBD
:100C900008950C94480608950C944B06E82FF0E054
:100CA000E25BFD4F8081089508950E942103E4E4F2
:100CB000F2E0AEE4B2E011921D9282E0EE34F80769
:100CC000D1F78AE00E9466060C9406040895FF920C
:100CD0000F931F93CF93DF93F82E092F162FD72F43
:100CE000C42F222349F081E0809397010E942616A9
:100CF0009093960180939501809197018823A1F0AC
:100D000080919501909196010E9432160B9760F0A8
:100D1000EF2DF02FA12FBD2FCE0FDF2FD11DEC1700
:100D2000FD0741F410929701DF91CF911F910F9130
:100D3000FF90089581918D93F2CF80919801811158
:100D400011C08091D80080618093D8008AE18A9593
:100D5000F1F700C09091D900892F817090FF82E057
:100D60008093980181E090919801913009F080E0A2
:100D700008950C949D060E94B906809301010E947B
:100D80009D0681110C94CC0608950E949D06811148
:100D900002C00C94D206089561E070E082E091E018
:100DA0000C948B0961E070E082E091E00C94920970
:100DB000CF93DF93D82FC92F0E942C0A009779F484
:100DC000ED2FFC2FDC01A656BE4F2C9121930196EE
:100DD00085309105B9F781E0DF91CF91089580E0EA
:100DE000FBCF30E020E0FC014191CF01F901E65654
:100DF000FE4F40832F5F3F4F25303105A1F7089507
:100E0000AF92BF92CF92DF92EF92FF920F931F9318
:100E1000CF93DF937C015B01C42FD22FFC01828131
:100E20008823F9F04093A1010E9426169093A00117
:100E300080939F0180E28C0F883008F061C0C770FA
:100E400081E001C0880FCA95EAF7DF91CF911F9129
:100E50000F91FF90EF90DF90CF90BF90AF900C94E8
:100E6000910C1091A101141340C080919F019091A9
:100E7000A0010E9432166C01B701C5010E946711E2
:100E8000C816D90690F5C0E2CD0F1D17B9F080E263
:100E9000810F883040F4177081E001C0880F1A95E7
:100EA000EAF70E94980CC83048F481E09D2F9770B3
:100EB00001C0880F9A95EAF70E94910C802F0E943A
:100EC0007E0CC830E8F4D77081E001C0880FDA9555
:100ED000EAF7DF91CF911F910F91FF90EF90DF9094
:100EE000CF90BF90AF900C94980C80E28C0F88301C
:100EF00038F4C77081E001C0880FCA95EAF7E9CFDE
:100F0000DF91CF911F910F91FF90EF90DF90CF90E5
:100F1000BF90AF9008950F939C01CB01243F4CE507
:100F2000340759F1A8F4293DFCE53F0701F12A3DBA
:100F30004CE53407D1F1283D3C4591F406E221EE21
:100F400041EE68ED7CE50E94000780E00F91089576
:100F5000263FFCE53F07E9F0B0F0273F3C45F9F0BC
:100F6000FC018281882339F11092A101EFCF07E2C1
:100F700025EE45EE69ED7CE5E6CF06E221EE40EE9A
:100F800064EF7CE5E0CF07E225EE44EE65EF7CE51B
:100F9000DACF06E221EE42EE66EF7CE5D4CF07E23F
:100FA00025EE46EE67EF7CE5CECF08E221E045EE88
:100FB0006AED7CE5C8CF81E0C9CFCF93DF93EC0128
:100FC000FB018281882309F419C1C230FCE5DF07E7
:100FD000C0F1C6319CE5D90730F09E012B5F3C453E
:100FE0002930310570F50E94B71490935D0280930B
:100FF0005C02C031ECE5DE0709F4CFC008F05BC04D
:10100000C8308CE5D80709F4B6C088F5C430ECE5E3
:10101000DE0709F4A8C0C0F4C2308CE5D80709F493
:101020009CC080915C028260C330DC4509F498C0AA
:1010300080915C0290915D020E94C5140E94F10EA5
:1010400080E0DF91CF91089580915C028061C6308D
:10105000ECE5DE0709F484C080915C028860C7304B
:10106000DC4508F47DC080915C02806279C0CC30A0
:101070008CE5D80709F489C070F480915C028C601B
:10108000CA30ECE5DE0709F46BC008F478C0809143
:101090005C028E7F65C0CE308CE5D80709F479C03C
:1010A00080915C028B7FCF30DC4508F459C0809181
:1010B0005C028F7E55C0CC3FECE5DE0709F457C0DB
:1010C00030F5C3318CE5D80709F46FC078F4C1312D
:1010D000ECE5DE0709F465C0C231DC4509F0A8CFB4
:1010E0000E94F10E80915C028F773AC0C5318CE589
:1010F000D80709F462C008F476C080915D0281606F
:10110000CB3FDC4509F094CF80935D0291CFC115B0
:10111000FDE5DF0709F44DC088F480915D028D7F05
:10112000CE3F9CE5D90781F380915D028E7FCF3F52
:10113000DC4550F380915D028360E6CFC230FDE56F
:10114000DF0709F459C008F444C080E0C330DD452E
:1011500009F06ECF0E944A156BCF80915C028160CE
:1011600080935C0265CF80915C028460F9CF8091AE
:101170005D028260C9CF80915C028064F1CF0E94E1
:10118000F10E80915C028068EBCF80915C028D7FD4
:10119000E7CF80915C02877FE3CF80915C028F7DF7
:1011A000DFCF80915C028F7BDBCF80915C02837FFD
:1011B000D7CF80915D028C7FA7CF80915C0282FBAC
:1011C000992790F921E0922790FB82F990FB83F90F
:1011D000C7CF80915D02982F909591708E7F892B5B
:1011E00090FB81F991CF0E94F10E90915C02892FC2
:1011F00097FB87F98058B4CF81E0ACCF81E021CF55
:10120000CF93DF93EB0186319C4511F50E94FC13CF
:101210009A81992399F08A7A91E009F490E0909369
:10122000A201811109C089E20E94D7130E943B14D8
:1012300080E0DF91CF91089585E3F6CF8091A20100
:10124000811104C089E20E94DE13F0CF85E3FBCF59
:1012500081E0EFCF8EE14A9B02C08150E1F74A9BCB
:10126000FECF08955A9880E28A95F1F75A9A089528
:10127000FC013BE03A95F1F798E020E080E031E0B6
:1012800040E14A95F1F7880F4A9B02C0816023270D
:1012900042E04A95F1F7000040E14A95F1F791509C
:1012A00079F790E19A95F1F799B132E03A95F1F733
:1012B000000040E14A95F1F792FB992790F99227B7
:1012C0002081920F90830895EF92FF920F931F93C6
:1012D000CF93DF930F92CDB7DEB719828C017C01DB
:1012E000E60EF11C0E151F0561F481E09981911144
:1012F00080E00F90DF91CF911F910F91FF90EF90C1
:1013000008950E942A09CE0101960E943809F80129
:1013100081938F01E7CF9093A4018093A301529A08
:101320005A9A08959093A4018093A30152985A9ACF
:10133000EA9AE9E6F0E080818F7C8083089561502D
:10134000770B91E001C0990F6A95EAF720E031E050
:10135000911108C0222391F05A9A80E28A95F1F700
:101360005A980895492F482339F05A9A232740E282
:101370004A95F1F79695ECCF5A98F9CF5A98EDCF58
:10138000FF920F931F93CF93DF93EC018C01060F15
:10139000111DC017D10731F4DF91CF911F910F912B
:1013A000FF900895F9900E94320968E08F2D0E9405
:1013B0009F09EFCF1F920F920FB60F9211242F9318
:1013C0003F934F935F936F937F938F939F93AF93CD
:1013D000BF93CF93DF93EF93FF935A98529AC091A4
:1013E000A301D091A4016D81662321F08E819F819C
:1013F0000E94C0090E94320980E18A95F1F75A984B
:1014000052985A9A80E18A95F1F76A81662309F128
:101410008B819C810E946409E881F981882311F005
:1014200088E001C082E080830E942A09FF91EF9149
:10143000DF91CF91BF91AF919F918F917F916F91EC
:101440005F914F913F912F910F900FBE0F901F9082
:101450001895E881F981E4CFCF93DF93C091A30180
:10146000D091A401F894529A5A9885E08A95F1F7A0
:10147000000052985A9A80E28A95F1F74A9B0CC074
:10148000529A5A9AE881F98181E08083789481E0C8
:1014900090E0DF91CF9108956D81662381F08E8178
:1014A0009F810E94640981110AC0529A5A9AE88168
:1014B000F98182E08083789482E090E0EACF0E9414
:1014C0002A0980E28A95F1F75A98529A80E18A9522
:1014D000F1F76A81662321F08B819C810E94C0090B
:1014E0000E943209E881F9811082789490E080E0CE
:1014F000D0CF9093AA018093A9010895E091A9010A
:10150000F091AA01309721F00190F081E02D09942B
:1015100080E00895E091A901F091AA01309721F0AF
:101520000280F381E02D099408952091A701309164
:10153000A8012817390771F09093A8018093A7019B
:10154000E091A901F091AA01309721F00680F7817E
:10155000E02D099408952091A5013091A601281746
:10156000390771F09093A6018093A501E091A9013C
:10157000F091AA01309721F00084F185E02D0994C3
:10158000089585B7806885BF85B7806885BF089551
:101590000895089508950E94C10A0E94C90A0C94F2
:1015A000B2030C949D06089508950E941D160E9492
:1015B00055060E948F160C94AE03BF92CF92DF9215
:1015C000EF92FF920F931F93CF93DF93CDB7DEB7C8
:1015D0002A970FB6F894DEBF0FBECDBF0E94D30A84
:1015E0000E94D40A0E9495030E94D10A882309F41C
:1015F0005CC08CEAC82E81E0D82E10E000E0B02E4E
:10160000802F0E944E06E82EF601F1906F01F81629
:1016100009F445C08091360281FD0E9454069F2D39
:101620009E2580E0FF24F394292F2F21A1F18E83A2
:10163000BF82EF2081E009F480E088870E942616AF
:101640008160782F9A8789874E815F8168858A8536
:101650000E94760BF801E455FE4F8081F826F08257
:101660000E947E0A9091AB01891781F10E947E0A47
:101670008093AB012A960FB6F894DEBF0FBECDBFA4
:10168000DF91CF911F910F91FF90EF90DF90CF905E
:10169000BF900C9465048F5FFF0C883029F60F5FB4
:1016A0001F4F0A30110509F0AACF8FEF89838A8373
:1016B0001B820E9426168160782F9D838C8349812E
:1016C0005A816B818D810E94760BCACF2A960FB604
:1016D000F894DEBF0FBECDBFDF91CF911F910F9168
:1016E000FF90EF90DF90CF90BF900895CF93DF935E
:1016F000CDB7DEB72B970FB6F894DEBF0FBECDBFC8
:101700004F83588769877A878B871E821D8285E081
:10171000FE013796DE01119601900D928A95E1F750
:1017200049815A816B817C818D819E812B960FB678
:10173000F894DEBF0FBECDBFDF91CF910C946A113C
:10174000FC01808191810C94A913CF93C82F882329
:1017500009F483C08238C1F40E947E0A81FD7DC0F5
:1017600089E30E94D7130E943B142FEF81EE94E08F
:10177000215080409040E1F700C0000089E30E94C2
:10178000DE13CF910C943B148338A1F40E947E0A9F
:1017900080FD63C083E50E94D7130E943B142FEFA6
:1017A00081EE94E0215080409040E1F700C00000BD
:1017B00083E5E5CF8438A1F40E947E0A82FD4DC006
:1017C00087E40E94D7130E943B142FEF81EE94E030
:1017D000215080409040E1F700C0000087E4CFCF67
:1017E0008CEF8C0F813A90F46C2F80910A019091CC
:1017F0000B010E946115882329F08C2F0E94DE13B3
:101800000E943B148C2F0E94D713BBCF80E28C0F19
:10181000883048F4C77081E001C0880FCA95EAF7A4
:101820000E94FF13AECFEBE5EC0FE33040F4F0E0A5
:10183000E657FE4F808190E0CF910C94950AC85AEC
:10184000C73158F4EC2FF0E0EE0FFF1FE45AFE4FC3
:1018500080819181CF910C94AB0ACF910895882318
:1018600009F44BC0823871F40E947E0A81FF45C0A2
:1018700089E30E94D7130E943B1489E30E94DE1380
:101880000C943B14833859F40E947E0A80FF35C0C3
:1018900083E50E94D7130E943B1483E5EFCF843881
:1018A00059F40E947E0A82FF28C087E40E94D71361
:1018B0000E943B1487E4E2CF9CEF980F913AF0F23C
:1018C00090E2980F983050F4877091E001C0990F22
:1018D0008A95EAF7892F0E940514D2CF9BE5980FCD
:1018E000933020F490E080E00C94950A885A873178
:1018F00020F490E080E00C94AB0A0895CF93C82FB9
:101900000E94A50BC93349F42FEF87EE93E02150D5
:1019100080409040E1F700C000008C2FCF910C94E4
:101920002F0C882321F00E94FF130C943B14089580
:10193000882321F00E9405140C943B140895BF9253
:10194000CF92DF92EF92FF920F931F93CF93DF938B
:101950006C01D62FC72FFC01058102950F701281F3
:1019600011110E941C140E94F513E82E882391F097
:101970001123E9F08C2F807F803421F080E28D0FDD
:101980008830A8F082E00E9486140E94F51391E04E
:10199000E82EE926BC2EB2949FE0B922FBE0FB15AD
:1019A000A8F1EB2DF0E0EF57F24E0C94371DE12C2F
:1019B000F1CF0C2F0F70C07F11F00295007F112323
:1019C000A9F0002359F080E28D0F883010F0D1117A
:1019D00009C0802F0E94FF130E943B148D2F0E948C
:1019E000A50B14C0802F0E940F14F6CF8D2F0E94DC
:1019F0002F0C002359F080E28D0F883010F0D111A8
:101A00002CC0802F0E9405140E943B142B2D2850BF
:101A1000330B2430310520F40E947E0A0E946504B5
:101A2000EE2009F483C10E94F11380FD7FC1F6010D
:101A300012820E94EB130E947612C6010E94B70E1A
:101A40000E94EB13DF91CF911F910F91FF90EF90C8
:101A5000DF90CF90BF900C949712802F0E941514A6
:101A6000D3CF2C2F2F70F22EC07FC03219F0F294FA
:101A700080EFF822DD2369F0D13049F1112391F193
:101A8000002351F1F601858180FFA8CF8F708583F7
:101A900023C0112381F0011106C00E9422148F2956
:101AA0000E94910CB3CF0130C1F70E9422148F29FC
:101AB0000E942814ABCF011106C00E9431148F2D53
:101AC0000E94980CA3CF013009F4A0CFF6CF1123C8
:101AD00029F0063008F09ACF8F2DE2CF053008F0BC
:101AE00095CFEDCF002359F3D93349F4FFEF27EE1B
:101AF00033E0F15020403040E1F700C000008D2F6E
:101B00000E942F0C83CF8C2F86958695837069F069
:101B1000813009F07BCF8D2F9C2F9370111102C063
:101B200090E080E00E94AB0A71CF8D2F9C2F9370C4
:101B3000111102C090E080E00E94950A67CF8C2FBF
:101B4000837009F041C0111161CF4D2F4295469528
:101B50004770440F440F0D2F0F7010E030E020E06D
:101B6000042E04C0000F111F221F331F0A94D2F746
:101B700060E070E0CB01D4FF0FC06FE070E080E068
:101B800090E004C0660F771F881F991F4A95D2F70F
:101B90006095709580959095C695C695C370602B9D
:101BA000712B822B932BC23049F058F4C13019F0BD
:101BB0000E9428122BCF0E94161228CF0E943A12A0
:101BC00025CF0E94141222CF8695112311F08C2F5D
:101BD0008170882309F41ACF4D2F4295469547709E
:101BE000440F440F0D2F0F7010E030E020E0042E62
:101BF00004C0000F111F221F331F0A94D2F760E0A8
:101C000070E0CB01D4FF0FC06FE070E080E090E0A7
:101C100004C0660F771F881F991F4A95D2F76095F9
:101C2000709580959095C695C695C370602B712B65
:101C3000822B932BC23049F058F4C13019F00E9426
:101C4000ED12E4CE0E94DB12E1CE0E94FF12DECE46
:101C50000E945012DBCECF70112329F08C2F0E94EE
:101C600076128D2F1DCF8D2F0E94980C8C2F0E94E5
:101C70009712CCCED23F89F160F4D03FC9F0D13F6A
:101C800029F1112309F442C00111A8CE8C2F8F71C4
:101C900021C0D33F39F1D43FA1F7112369F1CF71AE
:101CA0008C2F0E94761263E08C2F0E947114AECEAE
:101CB000112341F0053008F0A9CE8C2F8F710E94BE
:101CC000BA12A4CE063008F0A1CEF7CF8C2F8F71B8
:101CD000112369F20E94761299CE8C2F8F711123F5
:101CE000C9F3C5CF112329F08C2F8F710E94611287
:101CF0008DCE0E945C128ACE81E00E948614023052
:101D000008F484CE82E00E94861480CE002359F02D
:101D1000D93309F0F4CE8FEF97EEE3E08150904095
:101D2000E040E1F7EACE8C2F8F71A1CFDF91CF9108
:101D30001F910F91FF90EF90DF90CF90BF9008958B
:101D40000F931F93CF93DF93EC01688179818A8190
:101D50000E94B3138C010E9411130E941312B80148
:101D6000CE01DF91CF911F910F910C949F0CCF93D7
:101D7000DF93EC018B819C81892B29F088819981EB
:101D800089238F3F59F4DF91CF910895CE010E94AE
:101D9000A00ECE01DF91CF910C94FB03CE010E94E7
:101DA00022048111F3CF0E94F513882361F38A8105
:101DB000882349F382E0DF91CF910C9486140E942E
:101DC0001C140E941F140E943B1490E080E00E94AB
:101DD000950A90E080E00C94AB0A0E94E5130C9405
:101DE000DF0E0E940C140C94ED0EE92FE295EF70BB
:101DF000E250EE3070F4F0E0E357F24E0C94371DF1
:101E0000803F19F020F4883E20F481E00895843F5B
:101E1000E1F380E00895883EC0F3813FD1F7F5CF2C
:101E200093FB882780F908950E94A9130C94F50E5E
:101E3000CF93DF9300D000D00F92CDB7DEB70F90D5
:101E40000F900F900F900F90DF91CF910895CF9347
:101E5000DF9300D000D000D0CDB7DEB726960FB606
:101E6000F894DEBF0FBECDBFDF91CF9108951F93D1
:101E7000CF93DF93C091B70116E08091B8018C1326
:101E800004C0DF91CF911F910895D0E01C9FF00115
:101E90001D9FF00D1124E754FE4F40815181628156
:101EA0007381848195810E94270F2196C770E5CFA9
:101EB0004091E9015091EA016091EB017091EC01D0
:101EC0008091ED019091EE010C94270F1F93CF9319
:101ED000DF938091EE01807FA9F48091EB0188234C
:101EE00089F08091B701C091B8016091E9017091CA
:101EF000EA01A091EC01B091ED01D62FD72316E0B5
:101F0000C81304C0DF91CF911F91089590E01097FE
:101F100011F0DF3F19F401968770F2CF189F9001FE
:101F2000199F300D1124F901E754FE4F41814713E9
:101F3000F2CF40814613EFCF42814111ECCF438174
:101F400054814A1B5B0B483C510528F78091EE01F8
:101F50008F7080618093EE01F901E254FE4F808121
:101F60008F708061808389EE91E00E94B70EDF91CF
:101F7000CF911F910C94370FAF92BF92CF92DF9207
:101F8000EF92FF920F931F93CF93DF93CDB7DEB7FE
:101F900061970FB6F894DEBF0FBECDBF8C0185E010
:101FA000F801DE011D9601900D928A95E1F7F80186
:101FB00040815181E28089EEC82E81E0D82E609167
:101FC000EC017091ED016115710509F461C1909109
:101FD000E9012091EA01892F82238F3F09F458C13A
:101FE000A380B480F090EB01F501E61BF70BFF2016
:101FF00009F4FCC08091EE01382F307FE83CF105F8
:1020000008F0B2C0311179C0FE2C251323C09413FF
:1020100021C0E1101FC08F7080618093EE010E948B
:10202000580FC6010E94B70E8091EE01F80185831A
:102030008F2D61960FB6F894DEBF0FBECDBFDF9136
:10204000CF911F910F91FF90EF90DF90CF90BF90B5
:10205000AF900895AB2829F0842F85238F3F09F096
:1020600033C180E0F82FF170DF2E80FF3CC08091FB
:10207000B7012091B80136E0821315C04D875E8705
:102080008D859E850E94A913292F22952F702230BD
:10209000F0F0243018F59F70F1F0F8019581907FF1
:1020A000D1F4D12C1EC090E0389FF001399FF00D83
:1020B0001124E754FE4F6181651306C060816413EB
:1020C00003C062816E110FC001968770D5CF9F70DB
:1020D00011F0882331F3805E883018F3C8010E9424
:1020E000B70EFD2CA5CFEE2009F4A2CF8091EE0112
:1020F00081608093EE01F12C9BCF251306C09413D1
:1021000004C0F801EE2009F48DC04D875E878D85EF
:102110009E850E94140F882319F1EE2009F1809109
:10212000EE01803270F02091E9013091EA013887A8
:102130002F831986BB86AA868C87CE0107960E94BC
:10214000B70E86E0F801A9EEB1E001900D928A95F4
:10215000E1F70E94660F0E94580FFF24F39468CFA6
:10216000C8010E94B70EF9CF311113C07A2DB98A78
:10217000A88A6E2D89890E94180F89EE91E00E942D
:10218000B70E86E0F60111928A95E9F70E94580F82
:10219000B2CF25130FC094130DC0E1100BC0F8018E
:1021A0008583C8010E94B70E86E0F60111928A95D8
:1021B000E9F73ECF4D875E878D859E850E94140F7F
:1021C000882371F2EE2061F28091EE01803208F4F2
:1021D000B8CF2091E9013091EA013A8329831B822B
:1021E000BD82AC828E83CE010196A9CFE83CF10579
:1021F00008F041C0FE2CEE2009F4B2CF25132AC00E
:10220000941328C08091EE0180FD1BC0982F907F11
:10221000C1F0F8018583903F31F0982F907F905F57
:102220008F70892B8583C8010E94B70E86E0F80164
:10223000A9EEB1E001900D928A95E1F70E94580F46
:10224000F7CE86E0F801A9EEB1E001900D928A95F3
:10225000E1F7EECE4D875E878D859E850E94140F37
:1022600081116FCF8091EE0181608093EE01C801F2
:102270000E94B70EDDCE7A2DB98AA88A6E2D898983
:102280000E94180F86E0F60111928A95E9F7D6CFE1
:10229000EE2009F465CF4D875E878D859E850E946F
:1022A000140FF82E882309F45BCF86E0F801A9EE1D
:1022B000B1E001900D928A95E1F789EE91E00E94DC
:1022C000A00B0E94660FBACF81E08E25CBCE88ECA2
:1022D00090E008951F93CF93DF93CDB7DEB72C978F
:1022E0000FB6F894DEBF0FBECDBF4F835887698706
:1022F0007A878B879C87CE0107960E94BC0F882324
:1023000069F08A859B85892B39F04F815885842F08
:1023100085238F3F09F071C016E05FC086E0FE01A3
:102320003796DE01119601900D928A95E1F78A8524
:102330009B85892B89F38F81988589238F3F61F352
:102340002091B80130E0C90101968770992740912A
:10235000B7014817190671F40E94F10E1092B801E6
:102360001092B70186E0E9EEF1E0DF011D928A9557
:10237000E9F7D2CF96E0929FD001939FB00D112440
:10238000A754BE4FFE01319601900D929A95E1F748
:102390008093B8010E94370FBFCF819FC0011124E5
:1023A00087549E4F0E94BC0F8823E9F0E091B7014B
:1023B0001E9FF0011124E754FE4F4081518162813C
:1023C0007381848195810E94270F8091B70190E0ED
:1023D0000196877099278093B7018091B7019091FA
:1023E000B8018913DACF2C960FB6F894DEBF0FBE72
:1023F000CDBFDF91CF911F91089569857A858B8537
:102400009C850E94270F88CF08950C9404120E9487
:102410000512609325027093260280932702909301
:1024200028020C94DF0E08950C9407120F931F934B
:102430000091250210912602209127023091280256
:10244000602B712B822B932B1F910F910C940712F1
:102450000F931F93009125021091260220912702CD
:102460003091280260237123822393231F910F91BF
:102470000C9407120F931F930091250210912602CE
:102480002091270230912802602771278227932705
:102490001F910F910C9407120C9404120C944C127F
:1024A0000E944E12609321027093220280932302B5
:1024B000909324020C94DF0E60E070E0CB010C944A
:1024C00050120F931F9341E050E060E070E08A01EA
:1024D0009B0104C0000F111F221F331F8A95D2F7E2
:1024E000C901B8011F910F910C9450120F931F93C3
:1024F00041E050E060E070E004C0440F551F661FEB
:10250000771F8A95D2F78091210290912202A091A3
:102510002302B09124028A019B01082B192B2A2B3C
:102520003B2BC901B8011F910F910C9450120F93CE
:102530001F9341E050E060E070E004C0440F551F7D
:10254000661F771F8A95D2F7CB01BA016095709507
:1025500080959095009121021091220220912302F2
:102560003091240260237123822393231F910F91C2
:102570000C9450120F931F9341E050E060E070E024
:1025800004C0440F551F661F771F8A95D2F78091AC
:10259000210290912202A0912302B09124028A018B
:1025A0009B01082719272A273B27C901B8011F913A
:1025B0000F910C9450120F931F93009121021091D0
:1025C00022022091230230912402602B712B822B56
:1025D000932B1F910F910C9450120F931F93009106
:1025E00021021091220220912302309124026023C3
:1025F0007123822393231F910F910C9450120F93F8
:102600001F93009121021091220220912302309108
:10261000240260277127822793271F910F910C9422
:1026200050120895990F990F990F890F982F97704D
:1026300041E001C0440F9A95EAF786958695869504
:1026400095E0899FF0011124E151FE4F30E020E038
:1026500070E05191DF011197CB01022E02C09695D7
:1026600087950A94E2F781708195852784238527D1
:102670008C932F5F3F4F2530310559F70895990FFF
:10268000990F990F890F982F977086958695869543
:1026900025E0829FF0011124E151FE4F50E040E01F
:1026A00080E0219130E0092E02C0369527950A94EA
:1026B000E2F721703327042E01C0220F0A94EAF7B3
:1026C000822B4F5F5F4F4530510559F70895BF92F8
:1026D000CF92DF92EF92FF920F931F93CF93DF93EE
:1026E0008C01C0902102D0902202E0902302F09051
:1026F00024028091250290912602A0912702B09198
:102700002802C82AD92AEA2AFB2ACFE1D0E0BC2E27
:10271000D701C6010C2E04C0B695A795979587954D
:102720000A94D2F780FD0EC0219788F7B12C8B2D2B
:10273000DF91CF911F910F91FF90EF90DF90CF909D
:10274000BF900895B8018C2F0E948204019761F315
:10275000EECFCF93DF93EC010E946713BE01DF91B0
:10276000CF910C9482041F93CF93DF93EB01909150
:10277000B601992331F0CB01DF91CF911F910C94D9
:10278000A913882379F0CB010E946713182F682FB3
:10279000CE010E941213BE01812FDF91CF911F91B4
:1027A0000C948204CB010E943F13182FF4CF682FA2
:1027B00080910A0190910B010C949715682F8091DC
:1027C0000A0190910B010C94991580910A01909146
:1027D0000B010C949B158091290285958595859513
:1027E0000895809129028770089590912902977029
:1027F00081E009F480E00895809135020895909178
:102800003502892B80933502089580959091350289
:10281000982390933502089510923502089590916F
:102820003402892B8093340208958095909134026C
:1028300098239093340208951092340208951092D0
:102840003302089580912A02089508950C94251466
:1028500090912A02981721F080932A020C94261452
:10286000089580912A02882329F010922A0280E09C
:102870000C9426140895E0910A01F0910B018091C7
:1028800035028083E0910A01F0910B0180819091E3
:102890003402892B8083E0910A01F0910B01808141
:1028A00090913302892B808390912A02992381F0A1
:1028B000E0910A01F0910B018081892B8083809146
:1028C0000A0190910B010E944F1581110E94311451
:1028D00080910A0190910B010C948A0A08950C943E
:1028E0006E1498E0899F90011124622B6093290255
:1028F0000E947612809129028595859585950C9484
:102900006F141092290280E00C946F1490912902A8
:102910008095892380932902282F277071F4282F0E
:10292000082E000C330B9217130639F08595859508
:1029300085950E9497120C94811408956FEF7FEF94
:1029400090E080E00C94691D90E080E00E94451DBD
:1029500021E08C3E9E4F09F020E0822F089582E016
:1029600090E00C943D1D83E090E00C943D1DCF93CE
:1029700084E090E00E943D1DC82F81E290E00E941B
:102980003D1D982F8C2FCF910895CF93C92F682F7D
:1029900084E090E00E944B1D6C2F81E290E0CF918B
:1029A0000C944B1DAB01BC018FE090E00C945D1DBD
:1029B000AB01BC0183E190E00C945D1D60E070E030
:1029C000CB010C94D81460E070E0CB010E94D214CB
:1029D0000C94DE146CEE7EEF90E080E00E94691DA6
:1029E00060E082E090E00E944B1D60E083E090E0B8
:1029F0000E944B1D1092250210922602109227026F
:102A00001092280260E084E090E00E944B1D60E09C
:102A100081E290E00E944B1D60E085E090E00E9422
:102A20004B1D60E086E090E00E944B1D6FEF87E059
:102A300090E00E944B1D40E050E0BA0188E090E039
:102A40000E945D1D60E08DE090E00E944B1D40E023
:102A500050E0BA0188E190E00E945D1D60E087E1EE
:102A600090E00E944B1D40E050E0BA018CE190E004
:102A70000E945D1D60E080E290E00E944B1D40E0FE
:102A800050E0BA0188E190E00E945D1D0C94E314CF
:102A90000C94EA14682F8EE090E00C944B1D9C017E
:102AA0002E5F3F4FAC01485F5F4F80E02417350732
:102AB00009F40895F90191919F019923B9F38F5F6A
:102AC000F5CF662349F0FC0132960896219126172E
:102AD00029F0E817F907D1F780E0089581E008951B
:102AE0009C01FC0132969FEF80E04191461751F026
:102AF0009F3F19F4411101C0982F8F5F8630A9F7CD
:102B00009F3F09F40895290F311D97FD3A95F9016A
:102B100062830895FC01329608962191261303C022
:102B2000DF0111971C92E817F907B9F708950C9483
:102B300070150C948A15029626E0FC0111922A95D4
:102B4000E9F70895089508950C94A3150E94A4151B
:102B500080916202843049F11092370288E190E05E
:102B600020E40FB6F894A895809360000FBE2093E0
:102B7000600080E00E9465040E94A41583B7817FF5
:102B8000846083BF83B7816083BF7894889583B75F
:102B90008E7F83BF0FB6F894A895809160008861FE
:102BA00080936000109260000FBE08950895CF9347
:102BB0000E94A2150E9495030E94D615C0E08C2F9A
:102BC0000E944E06811105C0CF5FCA30C1F7CF9178
:102BD000089581E0FCCF08950C94EB150E94F10E4E
:102BE0000E947E0A0E9465040C94EC151F921FB689
:102BF0001F9211248F939F93AF93BF9380913702BD
:102C0000811113C08091580290915902A0915A02EB
:102C1000B0915B024196A11DB11D80935802909323
:102C20005902A0935A02B0935B02BF91AF919F915A
:102C30008F911F901FBE1F90189582E084BD93E076
:102C400095BD9AEF97BD80936E0008952FB7F894C5
:102C50008091580290915902A0915A02B0915B0262
:102C60002FBF08959C014FB7F8948091580290911E
:102C70005902A0915A02B0915B024FBF821B930B85
:102C8000089578941F921FB61F9211248F939F93DB
:102C9000AF93BF938091580290915902A0915A022C
:102CA000B0915B020196A11DB11D809358029093D3
:102CB0005902A0935A02B0935B02BF91AF919F91CA
:102CC0008F911F901FBE1F90189587E797E79093ED
:102CD00001088093000888E19AE00FB6F894A8955F
:102CE000809360000FBE90936000FFCF0C949E1401
:102CF0000E9495032FEF89EF90E021508040904093
:102D0000E1F700C000000E94950380E00E944E069B
:102D100080FF04C00E9476160C94651608950E94E8
:102D2000A414811102C00E9448150E94AF14809320
:102D300036020E94B71490935D0280935C020E9459
:102D4000B314682F70E090E080E00E94141260914C
:102D500021027091220280912302909124020C940E
:102D60004E128091400208950895CF93DF9300D0D2
:102D70000F92CDB7DEB790916202943019F5898336
:102D80007B836A8382E08093E9008FEF9091E80073
:102D9000815095FD06C095ED9A95F1F700008111DF
:102DA000F5CF8091E80085FF0DC050E040E063E082
:102DB00070E0CE0101960E94A6188091E8008E77FF
:102DC0008093E8000F900F900F90DF91CF910895BE
:102DD000BC0184E00C94B516BC0183E00C94B516DC
:102DE000CF93DF93EC0181E08093E9008FEF909126
:102DF000E800815095FD06C095ED9A95F1F7000029
:102E00008111F5CF8091E80085FF14C050E040E0CB
:102E100068E070E0CE010E94A6188091E8008E77ED
:102E20008093E80088E0FE01A8E3B2E001900D92F3
:102E30008A95E1F7DF91CF91089580916102811128
:102E400009C00E94361A0E94931A8091E2008460A1
:102E50008093E20008951092610208950895089504
:102E60000C94EE1542E061EC81E00E94B21942E25E
:102E700061EC82E00C94B21980916402833009F411
:102E80005FC030F48130C1F1823009F49BC00895F5
:102E90008A3009F487C08B3009F46DC0893009F09D
:102EA0004EC080916302813209F049C0809167026F
:102EB00090916802029708F042C08091E800877FF5
:102EC0008093E8008091E80082FF35C09091F30084
:102ED0008091F200029729F48091F1008B7F81307C
:102EE00021F48091F100809340028091E8008B777B
:102EF0008093E8000C94E61980916302813AF9F41A
:102F00008091E800877F8093E8008091670290912C
:102F10006802892B61F468E088E392E070E00E9427
:102F2000F5188091E8008B778093E800089560E0C1
:102F300090E080E0F3CF809162028111C3CF0895C9
:102F400080916302813AD9F780916702909168027B
:102F5000892BA9F78091E800877F8093E800809112
:102F6000E80080FFFCCF809116018093F1008091F2
:102F7000E8008E77BDCF80916302813201F78091A6
:102F8000670290916802892BD1F68091E800877FD3
:102F90008093E8000E94E6198091650280931601F3
:102FA0000C94F10E80916302813249F68091E80021
:102FB000877F8093E8000E94E619809166028093E3
:102FC0004102089580916302813A09F0B8CF80915F
:102FD000E800877F8093E8008091E80080FFFCCFC5
:102FE00080914102C2CF84B7877F84BF0FB6F89427
:102FF000A8958091600088618093600010926000C5
:103000000FBE80E890E00FB6F89480936100909333
:1030100061000FBE0E94CB0A0E94361A0E94931ACA
:103020008091E20084608093E20078940E941C1DED
:103030000E94D50A8CE091E00E94790A8091620298
:10304000853039F00E94DD0A0E94D30A0E94D40A1A
:10305000F5CF0E94A61580916002882379F30E9423
:10306000D715882359F30E949018E8CF0C9438188C
:10307000292F33272330310519F168F42130310528
:1030800009F444C02230310509F445C090E080E0E5
:1030900030E020E025C02132310549F122323105EE
:1030A000A9F780E490E021EC32E061157105C1F0F0
:1030B00082E390E02FE832E06130710589F0E6CFDD
:1030C00099278130910581F0009729F00297F1F658
:1030D000ECEEF1E002C0EEE3F2E0849190E09F01BB
:1030E000FA01318320830895ECE2F2E0F6CF89E023
:1030F00090E024E532E06115710591F389E090E0FC
:103100002DE632E06130710559F3C0CF82E190E0E5
:103110002DE732E0E5CF8BE390E022E432E0E0CF30
:1031200080E189BD82E189BD09B400FEFDCF8091B7
:10313000D8008F7D8093D8008091E00082608093DA
:10314000E0008091E00081FDFCCF0895AF92BF9236
:10315000CF92DF92FF920F931F93CF93DF936C0177
:10316000EB018A010E94051AF82E811123C0011576
:10317000110539F0F80180819181C81BD90BC80E67
:10318000D91EB12CA12C2097A9F08091E80085FDD3
:1031900022C08091E8008E778093E8000115110528
:1031A000A1F0F80180819181A80EB91EB182A082A0
:1031B00085E0F82E8F2DDF91CF911F910F91FF9019
:1031C000DF90CF90BF90AF9008950E94051A88239A
:1031D000D1F2F82EEFCFF60181916F018093F100CB
:1031E0002197FFEFAF1ABF0ACECFFC018091690291
:1031F00090916A0286179707A0F06115710529F46E
:103200009091E8009E779093E80090E06115710539
:1032100051F4911108C08091E80082FF34C080E031
:103220000895BC01F2CF809162028823C1F18530FC
:10323000C1F18091E80083FD30C08091E80082FDFB
:10324000EACF8091E80080FFE1CF8091F3002091E8
:10325000F200382F6115710519F02830310558F04A
:1032600091E02830310509F090E02091E8002E77B8
:103270002093E800CBCF81918093F10061507109D8
:103280002F5F3F4FE7CF80916202882341F0853066
:1032900041F08091E80083FFBECF81E0089582E095
:1032A000089583E00895FC018091690290916A027B
:1032B00086179707A0F06115710529F48091E80041
:1032C0008E778093E80090E06115710551F49111BB
:1032D00008C08091E80082FF35C080E00895BC01FD
:1032E000F2CF809162028823C9F18530C9F18091C3
:1032F000E80083FD31C08091E80082FDEACF809133
:10330000E80080FFE1CF8091F3002091F200382F98
:103310006115710519F02830310558F091E0283019
:10332000310509F090E08091E8008E778093E80005
:10333000CBCF84918093F1003196615071092F5F5A
:103340003F4FE6CF80916202882341F0853041F003
:103350008091E80083FFBDCF81E0089582E0089569
:1033600083E00895982F973028F08F708093E900BC
:1033700081E008959093E900242F762F50E098176C
:1033800031F07091EC002091ED005091F00021FDA2
:1033900002C09F5FE8CF3091EB003E7F3093EB009F
:1033A0003091ED003D7F3093ED003091EB003160C6
:1033B0003093EB007093EC002093ED005093F000FD
:1033C0002091EE0027FDE5CF80E008958091630213
:1033D00087FF13C08091E80082FF06C08091E8005B
:1033E0008B778093E80004C0809162028111F2CF54
:1033F0000895809162028823D9F38091E80080FFCC
:10340000F8CF8091E8008E77ECCF2091E4003091E6
:10341000E50095E6A9012091EC00822F817020FF44
:1034200006C08091E80080FF06C080E008952091EA
:10343000E80022FD1AC080916202882389F085305D
:1034400089F08091EB0085FD0FC02091E400309160
:10345000E50042175307F9F29150E1F684E0089530
:1034600082E0089583E0089581E008950E94A41AFF
:103470000E94AC1AE0EEF0E0808181608083E8ED8C
:10348000F0E080818F77808319BCA7EDB0E08C914C
:103490008E7F8C9380818F7E80831092610208954D
:1034A0000F931F93CF93DF930E94A41A0E94AC1A2C
:1034B000C8EDD0E088818F77888388818068888391
:1034C00088818F7D888319BC1092620210925E02FF
:1034D0001092600210925F0200EE10E0F80180810D
:1034E0008B7F808388818160888342E060E080E018
:1034F0000E94B219E1EEF0E080818E7F8083E2EEDF
:10350000F0E0808181608083808188608083F80121
:1035100080818E7F8083888180618883DF91CF91D5
:103520001F910F910895E8EDF0E080818F7E8083F8
:10353000E7EDF0E080818160808384E082BF81E0FC
:10354000809361020C94501AE8EDF0E080818E7F48
:1035500080831092E20008951092DA001092E10048
:1035600008951F920F920FB60F9211242F933F933D
:103570004F935F936F937F938F939F93AF93BF937B
:10358000EF93FF938091E10082FF0BC08091E200F6
:1035900082FF07C08091E1008B7F8093E1000E9451
:1035A0001B1D8091DA0080FF19C08091D80080FF38
:1035B00015C08091DA008E7F8093DA008091D90067
:1035C00080FF96C080E189BD82E189BD09B400FE1B
:1035D000FDCF81E0809362020E941D178091E1007F
:1035E00080FF19C08091E20080FF15C08091E20049
:1035F0008E7F8093E2008091E20080618093E20000
:103600008091D80080628093D80019BC85E08093B7
:1036100062020E942F178091E10084FF2BC08091ED
:10362000E20084FF27C080E189BD82E189BD89B5C0
:10363000982F917080FFFBCF8091D8008F7D809371
:10364000D8008091E1008F7E8093E1008091E200BC
:103650008F7E8093E2008091E20081608093E2009F
:1036600080915E02882309F449C084E0809362025D
:103670000E9430178091E10083FF29C08091E20011
:1036800083FF25C08091E100877F8093E10082E085
:103690008093620210925E028091E1008E7F80939F
:1036A000E1008091E2008E7F8093E2008091E20051
:1036B00080618093E20042E060E080E00E94B21905
:1036C0008091F00088608093F0000E942E17FF9197
:1036D000EF91BF91AF919F918F917F916F915F918A
:1036E0004F913F912F910F900FBE0F901F90189503
:1036F00019BC109262020E942B1770CF8091E300D8
:1037000087FD93E090936202B3CF1F920F920FB6A2
:103710000F9211242F933F934F935F936F937F9357
:103720008F939F93AF93BF93CF93DF93EF93FF93C9
:10373000D091E900DF708091EC00C82FC17080FD4E
:10374000C0E81092E9008091F000877F8093F0003C
:1037500078940E94C91B1092E9008091F000886063
:103760008093F000CD2BCF70C093E900FF91EF91D3
:10377000DF91CF91BF91AF919F918F917F916F9189
:103780005F914F913F912F910F900FBE0F901F901F
:1037900018951F93CF93DF93CDB7DEB7AA970FB6D7
:1037A000F894DEBF0FBECDBF83E692E02091F1001A
:1037B000FC012193CF01F2E08B369F07B9F70E94FD
:1037C0003C178091E80083FF1EC1809163029091B5
:1037D00064029A3008F017C1E92FF0E0E556F24E86
:1037E0000C94371D803899F0823809F00CC1809113
:1037F00067028F70873008F006C18093E9008091DE
:10380000EB0085FB882780F91092E90006C08091C3
:103810005F0290916002911182609091E800977F21
:103820009093E8008093F1001092F1008091E800FD
:103830008E77E5C0882309F4D3C0823009F0E3C055
:10384000809165028111D6C0809167028F702FEF41
:10385000280F263008F0D7C08093E9002091EB00B4
:1038600020FFC8C0933031F48091EB0080628093D8
:10387000EB00C0C09091EB0090619093EB0021E0D1
:1038800030E001C0220F8A95EAF72093EA001092F7
:10389000EA008091EB008860EACF8111B4C01091FA
:1038A00065021F778091E3008078812B8093E3008D
:1038B0008091E800877F8093E8000E94E61980915C
:1038C000E80080FFFCCF8091E30080688093E300F4
:1038D00082E0111183E08093620295C080588230AB
:1038E00008F091C080916502909166028C3D23E0C2
:1038F0009207A1F583E08A838AE289834FB7F8941F
:10390000DE01139620E03EE051E2E32FF0E0509319
:103910005700E49120FF03C0E295EF703F5FEF7026
:103920008E2F90E0EA30C0F0C7968D939D932F5F65
:10393000243159F74FBF8091E800877F8093E800DA
:103940006AE270E0CE0101960E94F5188091E800CD
:103950008B778093E80057C0C096E7CF60916702ED
:1039600070916802AE014F5F5F4F0E943618BC0134
:10397000892B09F448C09091E800977F9093E80064
:1039800089819A810E945319E1CF8038E1F58091B5
:10399000E800877F8093E80080915E028093F100C9
:1039A00045CF811130C090916502923060F58091D1
:1039B000E800877F8093E80090935E020E94E619FA
:1039C00080915E02882311F084E005C08091E300BD
:1039D00087FDFACF81E0809362020E94321713C004
:1039E00080916502813079F481E0933009F080E0C4
:1039F000809360021092E9008091E800877F8093B5
:103A0000E8000E94E6198091E80083FF0AC08091D7
:103A1000E800877F8093E8008091EB0080628093CC
:103A2000EB00AA960FB6F894DEBF0FBECDBFDF91B4
:103A3000CF911F9108950895CF93809162028823BA
:103A4000A1F0C091E900CF709091EC00892F8170B6
:103A500090FD80E8C82B1092E9008091E80083FD7A
:103A60000E94C91BCF70C093E900CF910895EE0F5B
:103A7000FF1F0590F491E02D0994F999FECF92BDB6
:103A800081BDF89A992780B50895A8E1B0E042E099
:103A900050E00C94711D262FF999FECF92BD81BD87
:103AA000F89A019700B4021639F01FBA20BD0FB67C
:103AB000F894FA9AF99A0FBE08950396272F0E9458
:103AC0004C1D0E944B1D252F0E944C1D242F0C9431
:103AD0004C1D0196272F0E944C1D0C944B1DDC01A0
:103AE000CB01FC01F999FECF06C0F2BDE1BDF89A09
:103AF000319600B40D9241505040B8F70895F894B3
:103B0000FFCFD90CD90C310D310D830D060D060DEB
:103B1000060D9F0D2B0E3A0E3A0E000F000F090FE7
:103B2000090F0B0F090F090F090F000F000F100FDE
:103B3000090F090F100FF21B1A1C031D1A1C031D7D
:0A3B40004D1C6E1C031DC51CD11C9A
:103B4A0040019901009A01059A012B02B116F0165B
:103B5A00B416EC16E81601C8002C01F4F5F60204B6
:103B6A0000060507030134C6976694E200E900EAF5
:103B7A0000B500B600B700CD008301CC008A0192DF
:103B8A000194012102230224022502260227022A85
:103B9A0002B300B4006F007000818283E200E90082
:103BAA00EA00B500B600B700CD008301CC008A0157
:103BBA0092019401210223022402250226022702ED
:0E3BCA002A02B300B4006F00700081828300F5
:00000001FF
